:0E0000000C942A000C9400000C9400000C9448
:10000E0000000C9400000C9400000C9400000C9462
:10001E0000000C9400000C9400000C9400000C9452
:10002E0000000C9400000C9400000C9400000C9442
:10003E0000000C9400000C9400000C9400000C9432
:10004E0000000C940000F894EE27ECBBF1E0FBBF2F
:10005E00EBBFE5BF8DE0A2E0BB27ED938A95E9F7F4
:10006E0080E094E0A0E6ED930197E9F7EFE5EDBFB0
:10007E00E4E0EEBFC0E6D1E00C944500EFEFEABB42
:10008E00E0E0EBBBEFEFE7BBE0E0E8BBEFEFE4BB9C
:10009E00E0E0E5BBEFEFE1BBE0E0E2BBE3BFE2BFD8
:1000AE00ECBFEFBDEEBDEDBDECBDE7BDE6BDEBBDFE
:1000BE00EABDE9BDE8BDE2BDE5BDE4BDE3BDE9BF16
:1000CE00E5BFE4BFEAB9E0E8E8B9E0E0E0BFE6B9D1
:1000DE00EDB9E6BF10D015D01BD021D0E1E0E2BBC8
:1000EE00E2E0E2BBA4E6B0E021D019D011D009D0F5
:1000FE0002D0F0CFFFCFE1E0EBBBE5BBA4E6B0E072
:10010E0015C0E2E0EBBBE4E0E8BBA4E6B0E00EC055
:10011E00E4E0EBBBE2E0E8BBA4E6B0E007C0E8E059
:10012E00EBBBE1E0E8BBA4E6B0E000C0109639F00E
:10013E00A89580ED97E00197F1F71197C9F708950B
:00000001FF
